:100000000C943E000C9453000C9453000C94530039
:100010000C9453000C9453000C9453000C94530014
:100020000C9453000C9453000C9453000C94530004
:100030000C9453000C9453000C9453000C945300F4
:100040000C9453000C9453000C9453000C945300E4
:100050000C9453000C9453000C9453000C945300D4
:100060000C9453000C9453000C9453000C945300C4
:100070000C9453000C9453000C94530011241FBE95
:10008000CFEFD8E0DEBFCDBF11E0A0E0B1E0E6E405
:10009000F3E002C005900D92AC30B107D9F70E9491
:1000A00055000C94A1010C9400000E94EF0080E028
:1000B00091E00E94450180E090E00895582F18B823
:1000C00098B1881F8827881F880F880F880F892B71
:1000D00088B948B1252F30E0C90180749070F6E0EE
:1000E00095958795FA95E1F7880F991F880F991FC5
:1000F000482B48B948B1C9018072907075E0959558
:1001000087957A95E1F7880F991F482B48B988B1F0
:100110002071307094E0359527959A95E1F7822B00
:1001200088B9129A84EC99E020E931E0F90131971D
:10013000F1F70197D9F7129884EC99E020E931E0C2
:10014000F9013197F1F70197D9F718B898B1852FD0
:100150008870892B88B998B1852F8470892B88B9CC
:1001600098B1852F8270892B88B988B15170852B01
:1001700088B9129A84EC99E020E931E0F9013197CD
:10018000F1F70197D9F71298089587B1807F87B961
:1001900088B1807F88B912981098119A129A96B1F6
:1001A0001298129A129887B18F6087B993FDEDCF9C
:1001B00008951F93182F0E94C500109A1198812F3F
:1001C0000E945E001F9108951F93182F0E94C50082
:1001D00010981198812F0E945E001F91089587B199
:1001E0008F6087B981B1876081B90E94C50010987E
:1001F000119888B1827F88B9419A129A129888E240
:100200000E94E4008FE00E94E40086E00E94E40087
:1002100081E00E94E400089508950F931F9364E61F
:1002200070E00E948D01182F092F6AE070E00E9493
:100230008D01862F805D0E94D900812F902F6AE06A
:1002400070E00E948D01805D0E94D9001F910F9186
:100250000895CF93DF93EC01A4E096958795AA9536
:10026000E1F78A3010F0895C01C0805D0E94D900FE
:100270009E012F70822F2A3010F0895C01C0805DB2
:100280000E94D900DF91CF9108950F931F93CF93D0
:10029000DF938C01C0E0D0E002C00E94D900F801D9
:1002A000EC0FFD1F8081882321F02196C131D105FB
:1002B000A1F7DF91CF911F910F9108950F931F9395
:1002C000CF93DF93EC01062F10E003C00E94D9000A
:1002D0001F5FFE01E10FF11D8081882311F01017CF
:1002E000A8F3DF91CF911F910F910895EF92FF92A4
:1002F0000F931F938C017B0181E00E94E400C801F1
:100300000E94450180EC0E94E400C7010E94450163
:100310001F910F91FF90EF900895AA1BBB1B51E115
:1003200007C0AA1FBB1FA617B70710F0A61BB70B65
:10033000881F991F5A95A9F780959095BC01CD010A
:060340000895F894FFCFC0
:0C03460048656C6C6F20776F726C64006F
:00000001FF
