:100000000C943E000C9448000C9448000C9448005A
:100010000C9448000C9448000C9448000C94480040
:100020000C9448000C9448000C9448000C94480030
:100030000C9448000C9448000C9448000C94480020
:100040000C9448000C9448000C9448000C94480010
:100050000C9448000C9448000C9448000C94480000
:100060000C9448000C9448000C9448000C944800F0
:100070000C9448000C9448000C94480011241FBEB6
:10008000CFEFD8E0DEBFCDBF0E944E000C94CB0076
:100090000C940000FFCFFFCF08950895FFCFCF93BA
:1000A000DF93C0E9D1E088E10E945E0084EC99E032
:1000B000FE013197F1F70197D9F7F5CF089508952B
:1000C00008953E98469842984098419A429A000076
:1000D0000000000000C086B14298429A0000000073
:1000E000000000C0429800000000000000C086FD33
:1000F000EDCF3E9A089587B1886787B987B1876049
:1001000087B90E9461004098419888B1877988B981
:10011000449A429A00000000000000C042980895EE
:10012000089508950895AC0120E030E0FA01E20F4F
:10013000F31F8081882329F02F5F3F4F2131310544
:10014000A9F70895AC0120E001C02F5FFA01E20F8A
:10015000F11D8081882311F02617B8F30895AC01B2
:1001600020E030E0FA01E20FF31F8081882329F0BC
:100170002F5F3F4F21313105A9F720E030E0FB012F
:10018000E20FF31F8081882329F02F5F3F4F213139
:0A0190003105A9F70895F894FFCF98
:00000001FF
