:100000000C940E040C942B040C942B040C942B04D1
:100010000C942B040C942B040C942B040C942B04A4
:100020000C942B040C942B040C942B040C942B0494
:100030000C942B040C942B040C942B040C942B0484
:100040000C942B040C942B040C942B040C942B0474
:100050000C942B040C942B040C942B040C942B0464
:100060000C942B040C942B040C942B040C942B0454
:100070000C942B040C942B040C942B0410270E27A7
:1000800009270227F726E926D926C526AE26942673
:100090007826582635260F26E625BB258C255B2598
:1000A0002625EF24B42477243724F523AF236723B0
:1000B0001B23CE227D222A22D4217B212021C22073
:1000C0006220FF1F9A1F321FC81E5B1EEC1D7B1D86
:1000D000071D911C191C9F1B221BA31A231AA01970
:1000E0001B1995180C188217F5166716D7154615A3
:1000F000B3141E148813F0125612BB111F11821074
:10010000E30F430FA20EFF0D5C0DB70C120C6B0B2F
:10011000C40A1C0A7309C9081F087407C8061C060C
:100120006F05C20415046703B9020B025C01AE003F
:10013000000052FFA4FEF5FD47FD99FCEBFB3EFBE2
:1001400091FAE4F938F98CF8E1F737F78DF6E4F530
:100150003CF595F4EEF349F3A4F201F25EF1BDF043
:100160001DF07EEFE1EE45EEAAED10ED79ECE2EB4D
:100170004DEBBAEA29EA99E90BE97EE8F4E76BE787
:10018000E5E660E6DDE55DE5DEE461E4E7E36FE337
:10019000F9E285E214E2A5E138E1CEE066E001E0B3
:1001A0009EDF3EDFE0DE85DE2CDED6DD83DD32DD68
:1001B000E5DC99DC51DC0BDCC9DB89DB4CDB11DBDA
:1001C000DADAA5DA74DA45DA1ADAF1D9CBD9A8D9AC
:1001D00088D96CD952D93BD927D917D909D9FED892
:1001E000F7D8F2D8F0D8F2D8F7D8FED809D917D96D
:1001F00027D93BD952D96CD988D9A8D9CBD9F1D92B
:100200001ADA45DA74DAA5DADADA11DB4CDB89DBE3
:10021000C9DB0BDC51DC99DCE5DC32DD83DDD6DDCE
:100220002CDE85DEE0DE3EDF9EDF01E066E0CEE034
:1002300038E1A5E114E285E2F9E26FE3E7E361E486
:10024000DEE45DE5DDE560E6E5E66BE7F4E77EE844
:100250000BE999E929EABAEA4DEBE2EB78EC10ED0B
:10026000AAED45EEE1EE7EEF1DF0BDF05EF101F28C
:10027000A4F249F3EEF395F43CF5E4F58DF637F787
:10028000E1F78CF838F9E4F991FA3EFBEBFB99FCC5
:1002900047FDF5FDA4FE52FF0000AE005C010B021D
:1002A000B90267031504C2046F051C06C80674076B
:1002B0001F08C90873091C0AC40A6B0B120CB70C7F
:1002C0005C0DFF0DA20E430FE30F82101F11BB1137
:1002D0005612F01288131E14B3144615D71567165C
:1002E000F51682170C1895181B19A019231AA31AB2
:1002F000221B9F1B191C911C071D7B1DEC1D5B1EE7
:10030000C81E321F9A1FFF1F6220C22020217B219E
:10031000D4212A227D22CE221B236723AF23F5235B
:1003200037247724B424EF2426255B258C25BB2590
:10033000E6250F263526582678269426AE26C5268D
:10034000D926E926F726022709270E270000AE0046
:100350005C010B02B90267031504C2046F051C0699
:10036000C80674071F08C90873091C0AC40A6B0B66
:10037000120CB70C5C0DFF0DA20E430FE30F8210A1
:100380001F11BB115612F01287131E14B314461519
:10039000D7156716F51682170C1895181B19A01992
:1003A000231AA31A221B9F1B191C911C071D7B1DBE
:1003B000EC1D5B1EC81E321F9A1FFF1F6220C22049
:1003C00020217B21D4212A227D22CE221B236723B8
:1003D000AF23F52337247724B424EF2426255B2587
:1003E0008C25BB25E6250F2635265826782694260B
:1003F000AE26C526D926E926F726022709270E2785
:1004000010270E2709270227F726E926D926C52611
:10041000AE2694267826582635260F26E625BB25B7
:100420008C255B252625EF24B42477243724F52357
:10043000AF2367231B23CE227D222A22D4217B21B6
:100440002021C2206220FF1F9A1F321FC81E5B1E80
:10045000EC1D7B1D071D911C191C9F1B221BA31A41
:10046000231AA0191B1995180C188217F516671670
:10047000D7154615B3141E148713F0125612BB116C
:100480001F118210E30F430FA20EFF0D5C0DB70C7E
:10049000120C6B0BC40A1C0A7309C9081F087407E5
:1004A000C8061C066F05C20415046703B9020B02D7
:1004B0005C01AE00000052FFA4FEF5FD47FD99FC73
:1004C000EBFB3EFB91FAE4F938F98CF8E1F737F7EA
:1004D0008DF6E4F53CF595F4EEF349F3A4F201F260
:1004E0005EF1BDF01DF07EEFE1EE45EEAAED10ED00
:1004F00079ECE2EB4DEBBAEA29EA99E90BE97EE8FF
:10050000F4E76BE7E5E660E6DDE55DE5DEE461E4A2
:10051000E7E36FE3F9E285E214E2A5E138E1CEE03A
:1005200066E001E09EDF3EDFE0DE85DE2CDED6DD2C
:1005300083DD32DDE5DC99DC51DC0BDCC9DB89DBFA
:100540004CDB11DBDADAA5DA74DA45DA1ADAF1D93A
:10055000CBD9A8D988D96CD952D93BD927D917D9A1
:1005600009D9FED8F7D8F2D8F0D8F2D8F7D8FED803
:1005700009D917D927D93BD952D96CD988D9A8D943
:10058000CBD9F1D91ADA45DA74DAA5DADADA11DB7D
:100590004CDB89DBC9DB0BDC51DC99DCE5DC32DDD3
:1005A00083DDD6DD2CDE85DEE0DE3EDF9EDF01E092
:1005B00066E0CEE038E1A5E114E285E2F9E26FE31E
:1005C000E7E361E4DEE45DE5DDE560E6E5E66BE7F3
:1005D000F4E77EE80BE999E929EABAEA4DEBE2EBA8
:1005E00078EC10EDAAED45EEE1EE7EEF1DF0BDF0EA
:1005F0005EF101F2A4F249F3EEF395F43CF5E4F573
:100600008DF637F7E1F78CF838F9E4F991FA3EFB0B
:10061000EBFB99FC47FDF5FDA4FE52FF0000000036
:1006200000000000000000000000000000000000CA
:1006300000000000000000000000000000050B109A
:10064000161C21272D32383D43494E545A5F656AA6
:1006500070767B81878C92979DA3A8AE000B1621A4
:100660002D38434E5A65707B87929DA8000B16214A
:100670002C38434E5A65707B86929DA8001021321B
:10068000435465768797A805162738495A6A7B8CA4
:100690009DAE0B1C2D3D4E5F708192A300162D4325
:1006A0005A70879D00162C435A70869D00162D4364
:1006B0005970869D00162D435970879D001C385433
:1006C000708CA8102C4965819D05213D597692AE0C
:1006D00016324E6A87A30B27435F7B970021436541
:1006E00087A816385A7B9D0B2D4E709200214365CA
:1006F00087A816385A7B9D0B2C4E709200274E7699
:100700009D10385F86AE214970970B325981A81C25
:10071000436A92052C547BA3163D658C002D5A87A5
:10072000002C5A86002D5986002D5987002C5A8797
:10073000B32C5986002D5A86B32C5A870032659700
:1007400016497BAE2D5F92104376A8275A8C0B3D3D
:1007500070A321548605386A9D1C4E81003870A80C
:100760002C659D215992164E870B437BB33870A898
:100770002D659D215A92164E860B437B003D7B05CD
:1007800043810B4986104E8C1654921C5997215F59
:100790009D2765A32C6AA83270AE38760043871671
:1007A0005A9D2D70004387165A9D2C700043861663
:1007B0005A9D2C7000438616599D2D700049922732
:1007C00070054E972D760B549D327B105AA33881BD
:1007D000165FA83D861C65AE438C216A004E9D388D
:1007E0008621700B59A843922C7B1665B34E9D3819
:1007F0008621700B59A843922C7B16650054A8499A
:100800009D3D923287277B1C701065055AAE4EA322
:100810004397388C2D812176166A0B5F11241FBEF9
:10082000CFEFD8E0DEBFCDBF11E0A0E0B1E0E2EB5A
:10083000FDE002C005900D92A232B107D9F712E097
:10084000A2E2B1E001C01D92A234B107E1F70E941B
:10085000C9050C94D7060C9400002F923F924F923A
:100860005F926F927F928F929F92AF92BF92CF9240
:10087000DF92EF92FF920F931F93CF93DF9332E2B9
:10088000832E31E0932E2CE1222E26E0322E8AC0D8
:10089000F3018491F201E190F190019111912F0106
:1008A000C82FD0E0CC0FDD1FCC0FDD1FFE01E458B8
:1008B000FF4F65917491882777FD8095982FA80147
:1008C00097010E947B06F401A080B180C280D38092
:1008D000A60EB71EC81ED91EA082B182C282D382C4
:1008E000FE01E45BFC4F65917491882777FD80954C
:1008F000982F10950095F094E094E11CF11C011DD7
:10090000111DA80197010E947B06F401E480F58087
:1009100006811781E60EF71E081F191FE482F58273
:10092000068317830894611C711CF2E24F16F2E0F3
:100930005F0609F0ADCFC601B50120E230E040E02E
:1009400050E00E949A06CA01B90120E137E240E076
:1009500050E00E949A06F40120833183428353833E
:10096000C801B70120E230E040E050E00E949A0662
:10097000CA01B90120E137E240E050E00E949A0646
:10098000F401248335834683578388E090E0880E02
:10099000991EE0E2F0E02E0E3F1EF2EA8F16F1E023
:1009A0009F0631F082EA482E81E0582E310170CF47
:1009B000DF91CF911F910F91FF90EF90DF90CF903B
:1009C000BF90AF909F908F907F906F905F904F906F
:1009D0003F902F90089589E08093810080E293E01A
:1009E0009093890080938800089580EC80937C0028
:1009F00082E880937A000895DF93CF9300D000D0EF
:100A0000CDB7DEB7EAE7F0E0808180648083808143
:100A1000806180838091780090E09A8389838091BF
:100A2000790090E09C838B838B819C81982F882711
:100A30009C838B832B813C8189819A81822B932B90
:100A40009C838B832B813C81C9010F900F900F9069
:100A50000F90CF91DF9108955C9A85E08A95F1F728
:100A60005C9808955D9AE8ECF0E03197F1F798B161
:100A7000282F22952F70907F292B28B95C9A25E08A
:100A8000922F9A95F1F75C9898B1907F982B98B92E
:100A90005C9A2A95F1F75C9808955D98E8ECF0E08F
:100AA0003197F1F798B1282F22952F70907F292B3D
:100AB00028B95C9A25E0922F9A95F1F75C9898B145
:100AC000907F982B98B95C9A2A95F1F75C980895D5
:100AD00081E00E944D0580E29EE40197F1F70895C0
:100AE0008FE087B98AB180638AB9449A80E69AEE2A
:100AF0000197F1F780E30E944D0580EA9FE001979E
:100B0000F1F780E30E944D0580E991E00197F1F74C
:100B100080E30E944D0588E20E944D0588E20E9414
:100B20004D058CE00E944D050E94680586E00E94FC
:100B30004D050895CF93DF93EC01613011F480E807
:100B400001C080EC0E944D0503C021960E94320531
:100B500088818823D1F7DF91CF9108950F931F9358
:100B600080E40E944D0501E00FC080E00E94320544
:100B700011500117D0F3102F8FEF0E943205115042
:100B8000D9F70F5F093011F018E0F3CF1F910F91E3
:100B90000895CF92DF92EF92FF920F931F93CF931E
:100BA000DF9380EC80937C0082E880937A000E943F
:100BB00070050E94AE0580E091E061E00E949A0518
:100BC00081E191E062E00E949A0580E593EC20E9E2
:100BD00031E0F9013197F1F70197D9F70E946805E3
:100BE00089E08093810080E293E090938900809374
:100BF000880070E2C72E67E0D62E10928500109212
:100C00008400B19AC2EAD1E0B19BFECF0E94FC04FD
:100C1000AA2797FDA095BA2F89939993A993B99381
:100C2000B19A82E0C232D80779F70E942D0480EC95
:100C30000E944D05EAE2F1E053E3E52E52E0F52E85
:100C400003E212E0B701E801208131814281538142
:100C500057FF0BC088279927DC01821B930BA40B3D
:100C6000B50B80839183A283B38324813581468130
:100C7000578157FF0BC088279927DC01821B930BF4
:100C8000A40BB50B84839583A683B783948180815D
:100C9000980F96959695983048F0892F88508883BC
:100CA000883008F0D882DB01DC9203C0C882DB0107
:100CB0009C9338966F5F7F4F2196B1E0E23AFB0735
:100CC00019F680E80E944D05F80181918F010E947C
:100CD0003205F2E002331F07B9F780EC0E944D05A0
:100CE000D7018D917D010E943205B2E4EB16B2E08E
:100CF000FB06B1F782CF629FD001739FF001829F04
:100D0000E00DF11D649FE00DF11D929FF00D839F9A
:100D1000F00D749FF00D659FF00D9927729FB00D37
:100D2000E11DF91F639FB00DE11DF91FBD01CF014A
:100D30001124089597FB092E05260ED057FD04D0E7
:100D400014D00AD0001C38F4509540953095219568
:100D50003F4F4F4F5F4F0895F6F7909580957095F0
:100D600061957F4F8F4F9F4F0895A1E21A2EAA1BC6
:100D7000BB1BFD010DC0AA1FBB1FEE1FFF1FA2174B
:100D8000B307E407F50720F0A21BB30BE40BF50B48
:100D9000661F771F881F991F1A9469F760957095D1
:100DA000809590959B01AC01BD01CF010895F89409
:020DB000FFCF73
:100DB200444654205350454354524F4D4554455296
:100DC2000030487A202D2031304B487A283136299C
:020DD20000001F
:00000001FF
