:100000000C9468000C947D000C947D000C947D0091
:100010000C947D000C947D000C947D000C947D006C
:100020000C947D000C947D000C947D000C947D005C
:100030000C947D000C947D000C947D000C947D004C
:100040000C947D000C947D000C947D000C947D003C
:100050000C947D000C947D000C947D000C947D002C
:100060000C947D000C947D000C947D000C947D001C
:100070000C947D000C947D000C947D0007081314F3
:100080001413080700100808080810004C696E6572
:100090002032206C6F6E676572207468616E20314B
:1000A000342063686172616374657273004C696EB9
:1000B000652031206C6F6E676572207468616E20F8
:1000C000313420636861726163746572730A000081
:1000D00011241FBECFEFD8E0DEBFCDBF11E0A0E0FE
:1000E000B1E0EEE3F4E002C005900D92AA32B10750
:1000F000D9F70E9487000C941D020C94000099B15E
:1001000089B1892382FDFBCF4A9BFECF0895EF92F0
:10011000FF920F931F93DF93CF93CDB7DEB727974F
:100120000FB6F894DEBF0FBECDBF52985A9A8CE03E
:100130000E94A4018E010F5F1F4F0E946D0180E09D
:1001400091E00E948A0181E191E00E948A0187E0AA
:1001500061E00E9461018AE30E9475010E947F00B4
:100160008EE00E944D0188E191E00E948A010E9488
:100170007F000E946D018DEA90E00E9496018CE85C
:1001800090E00E94960188E10E944D010E947F004C
:100190008CE00E944D010E946D0186E890E0B8015C
:1001A0004AE050E00E94D801C8010E948A010E94E2
:1001B0007F000E946D018EE191E00E948A0180E43F
:1001C0000E944D01EE24FF24F701E458FF4F849173
:1001D0000E9457010894E11CF11C80E1E816F1042B
:1001E00099F780E061E00E94610180E00E94750162
:1001F00081E00E9475010E947F009FCF009711F45B
:1002000000C008950197F1F70895469A00C04698F6
:1002100008951F93DF93CF930F92CDB7DEB7662378
:1002200011F0449A01C04498459897B19F6097B9DE
:1002300018B1107F982F92959F70912B98B9898350
:100240000E94050189818F70812B88B90E94050168
:100250001F6018B90F90CF91DF911F9108954498B6
:10026000459A87B1807F87B9469A00C086B1469883
:1002700000C0469A00C096B19F708295807F4698D4
:10028000892B08950E942F0187FDFCCF82E090E02A
:100290000E94FE000E942F0108951F93182F0E94B4
:1002A0004201812F60E00E9409011F9108951F9370
:1002B000182F0E944201812F61E00E9409011F91C5
:1002C0000895662311F4805801C080540E944D01A6
:1002D00008950E94420190E0089581E00E944D013E
:1002E000089582E00E944D0108951F93182F0E94E7
:1002F00042011A3049F4803410F480E401C080E0F7
:1003000080580E944D0104C0812F61E00E940901C4
:100310001F910895CF93DF93EC0102C00E947501F5
:1003200089918823D9F7DF91CF910895CF93DF93F7
:10033000EC0102C00E947501FE0121968491882380
:10034000C9F7DF91CF9108951F93182F87B18F6759
:1003500087B980E89EE30E94FE00419A409A0E947D
:10036000050180E893E10E94FE000E94050180E4FF
:1003700090E00E94FE000E94050180E490E00E944F
:10038000FE0040980E94050180E490E00E94FE007B
:1003900088E20E944D0188E00E944D010E946D019B
:1003A00086E00E944D01812F0E944D011F9108950A
:1003B000FB019F01E8944230C4F04532B4F44A3066
:1003C00029F497FB1EF4909581959F4F642F772712
:1003D0000E940902805D8A330CF0895D8193CB0114
:1003E0000097A1F716F45DE251931082C9010C94B5
:1003F000F901DC01FC01672F71917723E1F7329756
:1004000004C07C916D9370836291AE17BF07C8F3EF
:100410000895AA1BBB1B51E107C0AA1FBB1FA6174B
:10042000B70710F0A61BB70B881F991F5A95A9F79D
:0E04300080959095BC01CD010895F894FFCF02
:10043E004C43442054657374204C696E6520310A18
:10044E00004C696E652032004375724F6E00436F2B
:0A045E00707972696768743A200033
:00000001FF
