:100000000C943E000C9453000C9453000C94530039
:100010000C9453000C9453000C9453000C94530014
:100020000C9453000C9453000C9453000C94530004
:100030000C9453000C9453000C9453000C945300F4
:100040000C9453000C9453000C9453000C945300E4
:100050000C9453000C9453000C9453000C945300D4
:100060000C9453000C9453000C9453000C945300C4
:100070000C9453000C9453000C94530011241FBE95
:10008000CFEFD8E0DEBFCDBF11E0A0E0B1E0E2E706
:10009000F3E002C005900D92AC30B107D9F70E9491
:1000A00083010C94B7010C94000018B828B1982F64
:1000B000991F9927991F9295990F990F907C922BD0
:1000C00098B928B1482F50E0CA0180749070F6E0CA
:1000D00095958795FA95E1F7E5E0880F991FEA95E0
:1000E000E1F7282B28B928B1CA018072907075E019
:1000F000959587957A95E1F764E0880F991F6A9541
:10010000E1F7282B28B928B1CA018071907034E03A
:10011000959587953A95E1F7B3E0880F991FBA95C1
:10012000E1F7282B28B9159A80ED97E020E931E016
:10013000F9013197F1F70197D9F7159880ED97E01C
:1001400020E931E0F9013197F1F70197D9F718B8B3
:1001500028B1CA0188709070A3E095958795AA95FB
:10016000E1F7F6E0880F991FFA95E1F7282B28B9F7
:1001700028B1CA018470907095958795959587955B
:1001800075E0880F991F7A95E1F7282B28B928B1D7
:10019000CA01827090709595879534E0880F991FF9
:1001A0003A95E1F7282B28B988B14170507093E057
:1001B000440F551F9A95E1F7842B88B9159A80ED65
:1001C00097E020E931E0F9013197F1F70197D9F78C
:1001D0001598089587B1877887B988B1877888B9E5
:1001E00015981798169A159A96B11598159A159804
:1001F00087B1886787B996FDEDCF08951F93182FB3
:100200000E94EA00179A1698812F0E9455001F91AC
:1002100008951F93182F0E94EA0017981698812FAF
:100220000E9455001F91089587B1886787B981B1F1
:10023000806E81B90E94EA001798169888B1877974
:1002400088B9449A159A159888E20E9409018CE0B1
:100250000E94090186E00E94090181E00E940901D3
:10026000089508950F931F9364E670E00E94A30120
:10027000182F092F6AE070E00E94A301862F805D8D
:100280000E94FE00812F902F6AE070E00E94A3017F
:10029000805D0E94FE001F910F910895CF93DF9320
:1002A000EC01A4E096958795AA95E1F78A3010F0C5
:1002B000895C01C0805D0E94FE009E012F70822F2C
:1002C0002A3010F0895C01C0805D0E94FE00DF9141
:1002D000CF9108950F931F93CF93DF938C01C0E0CC
:1002E000D0E002C00E94FE00F801EC0FFD1F8081EB
:1002F000882321F02196C131D105A1F7DF91CF915B
:100300001F910F9108950E94140180E091E00E94D6
:100310006A0180E090E00895EF92FF920F931F939F
:100320008C017B0181E00E940901C8010E946A01E1
:1003300080EC0E940901C7010E946A011F910F9180
:10034000FF90EF900895AA1BBB1B51E107C0AA1FA5
:10035000BB1FA617B70710F0A61BB70B881F991F66
:100360005A95A9F780959095BC01CD010895F89410
:02037000FFCFBD
:0C03720048656C6C6F20776F726C640043
:00000001FF
