:100000000C942A000C943F000C943F000C943F0089
:100010000C943F000C943F000C943F000C943F0064
:100020000C943F000C943F000C943F000C943F0054
:100030000C943F000C943F000C943F000C943F0044
:100040000C943F000C943F000C943F000C943F0034
:100050000C943F0011241FBECFE5D8E0DEBFCDBF1A
:1000600010E0A0E6B0E0EEE9F1E002C005900D92EC
:10007000AE37B107D9F70E94AF000C94CD000C94B5
:1000800000008FEF84BB85E08ABB0895DA9A85E093
:100090008A95F1F7DA980895D89AE8ECF0E031976C
:1000A000F1F7982F92959F7095BBDA9A95E0292FDA
:1000B0002A95F1F7DA9885BBDA9A9A95F1F7DA98EA
:1000C0000895D898E8ECF0E03197F1F7982F9295E1
:1000D0009F7095BBDA9A95E0292F2A95F1F7DA9867
:1000E00085BBDA9A9A95F1F7DA98089581E00E9433
:1000F000610080E29EE40197F1F7089580E69AEEB0
:100100000197F1F780E30E94610080EA9FE0019788
:10011000F1F780E30E94610080E991E00197F1F737
:1001200080E30E94610088E20E94610088E20E94F0
:1001300061008CE00E9461000E94760086E00E94CF
:1001400061000895CF93DF93EC0103C021960E94D4
:100150004C0088818823D1F7DF91CF91089584EFF7
:1001600091E020E931E0F9013197F1F70197D9F7F2
:100170008FEF84BB85E08ABB0E947E0080E80E94EE
:10018000610080E690E00E94A20080EC0E94610085
:0E0190008CE690E00E94A200FFCFF894FFCF13
:10019E0048454C4C4F20574F524C4400495420492F
:0E01AE005320574F524B494E473A2D2900001F
:00000001FF
