:100000000C943E000C9453000C9453000C94530039
:100010000C9453000C9453000C9453000C94530014
:100020000C9453000C9453000C9453000C94530004
:100030000C9453000C9453000C9453000C945300F4
:100040000C9453000C9453000C9453000C945300E4
:100050000C9453000C9453000C9453000C945300D4
:100060000C9453000C9453000C9453000C945300C4
:100070000C9453000C9453000C94530011241FBE95
:10008000CFEFD8E0DEBFCDBF11E0A0E0B1E0E0E50A
:10009000F3E002C005900D92AA32B107D9F70E9491
:1000A0008D000C94A6010C9400000895CF93DF936B
:1000B0000E94EC0080E091E069E071E00E947B0129
:1000C000C0E8DEE384B18C7F84B9559A85B1836042
:1000D00085B9189905C05D9ACE010197F1F7F2CF65
:1000E0008BE191E0BC010E947B01ECCF0F931F9349
:1000F000CF93DF938C010E94EC00C8010E944A015B
:10010000C0E9D1E088E10E94E10084EC99E0FE01C1
:100110003197F1F70197D9F7F5CF8CE191E00E9483
:100120007600FFCF129A00000000000000C090E0AF
:1001300048B19C01207F3070359527954778422B38
:1001400048B9129800000000000000C0129A000098
:100150000000000000C028B18F70907033E0880F5D
:10016000991F3A95E1F72778282B28B912980000B3
:100170000000000000C008953E984698129810981C
:10018000119A129A00000000000000C086B1129877
:10019000129A00000000000000C012980000000049
:1001A000000000C086FDEDCF3E9A08951F93182FE2
:1001B0000E94BC00109A1198812F0E9492001F91FA
:1001C00008951F93182F0E94BC0010981198812F3A
:1001D0000E9492001F91089500000000000000C0DE
:1001E00087B1886787B981B1876081B90E94BC00F7
:1001F0001098119888B1877988B9449A129A0000AA
:100200000000000000C0129888E20E94E1008FE028
:100210000E94E10086E00E94E10081E00E94E1008E
:10022000089508950F931F9364E670E00E94920171
:10023000182F092F6AE070E00E949201862F805DDE
:100240000E94D600812F902F6AE070E00E949201F8
:10025000805D0E94D6001F910F910895CF93DF9388
:10026000EC0164E0969587956A95E1F78A3010F085
:10027000895C01C0805D0E94D6009E012F70822F94
:100280002A3010F0895C01C0805D0E94D600DF91A9
:10029000CF9108950F931F93CF93DF938C01C0E00C
:1002A000D0E002C00E94D600F801EC0FFD1F808153
:1002B000882321F02196C134D105A1F7DF91CF9198
:1002C0001F910F9108950F931F93CF93DF93EC012C
:1002D000062F10E003C00E94D6001F5FFE01E10F51
:1002E000F11D8081882311F01017A8F3DF91CF91C1
:1002F0001F910F910895EF92FF920F931F938C011E
:100300007B0181E00E94E100C8010E944A0180EC6B
:100310000E94E100C7010E944A011F910F91FF90C6
:10032000EF900895AA1BBB1B51E107C0AA1FBB1F7A
:10033000A617B70710F0A61BB70B881F991F5A9571
:10034000A9F780959095BC01CD010895F894FFCF51
:10035000416C65676574693A0042757A7A2D50423E
:100360003020436861722D504231000048656C6C4A
:0A0370006F20576F726C64210000CB
:00000001FF
